{
  "contractName": "Auth",
  "abi": [
    {
      "anonymous": false,
      "inputs": [
        {
          "indexed": false,
          "internalType": "string",
          "name": "firstName",
          "type": "string"
        },
        {
          "indexed": false,
          "internalType": "string",
          "name": "lastName",
          "type": "string"
        },
        {
          "indexed": false,
          "internalType": "string",
          "name": "email",
          "type": "string"
        },
        {
          "indexed": false,
          "internalType": "string",
          "name": "number",
          "type": "string"
        },
        {
          "indexed": false,
          "internalType": "string",
          "name": "adr",
          "type": "string"
        },
        {
          "indexed": false,
          "internalType": "string",
          "name": "timeSlot",
          "type": "string"
        },
        {
          "indexed": false,
          "internalType": "string",
          "name": "doctor",
          "type": "string"
        }
      ],
      "name": "appointmentCreated",
      "type": "event"
    },
    {
      "anonymous": false,
      "inputs": [
        {
          "indexed": false,
          "internalType": "string",
          "name": "firstName",
          "type": "string"
        },
        {
          "indexed": false,
          "internalType": "string",
          "name": "lastName",
          "type": "string"
        },
        {
          "indexed": false,
          "internalType": "string",
          "name": "email",
          "type": "string"
        },
        {
          "indexed": false,
          "internalType": "string",
          "name": "number",
          "type": "string"
        },
        {
          "indexed": false,
          "internalType": "string",
          "name": "adr",
          "type": "string"
        },
        {
          "indexed": false,
          "internalType": "string",
          "name": "password",
          "type": "string"
        },
        {
          "indexed": false,
          "internalType": "string",
          "name": "userRole",
          "type": "string"
        }
      ],
      "name": "employeeCreated",
      "type": "event"
    },
    {
      "anonymous": false,
      "inputs": [
        {
          "indexed": false,
          "internalType": "string",
          "name": "username",
          "type": "string"
        },
        {
          "indexed": false,
          "internalType": "string",
          "name": "email",
          "type": "string"
        },
        {
          "indexed": false,
          "internalType": "string",
          "name": "number",
          "type": "string"
        },
        {
          "indexed": false,
          "internalType": "string",
          "name": "password",
          "type": "string"
        },
        {
          "indexed": false,
          "internalType": "string",
          "name": "userRole",
          "type": "string"
        }
      ],
      "name": "userCreated",
      "type": "event"
    },
    {
      "inputs": [],
      "name": "employeeCount",
      "outputs": [
        {
          "internalType": "uint256",
          "name": "",
          "type": "uint256"
        }
      ],
      "stateMutability": "view",
      "type": "function",
      "constant": true
    },
    {
      "inputs": [],
      "name": "totalAppointmets",
      "outputs": [
        {
          "internalType": "uint256",
          "name": "",
          "type": "uint256"
        }
      ],
      "stateMutability": "view",
      "type": "function",
      "constant": true
    },
    {
      "inputs": [],
      "name": "userCount",
      "outputs": [
        {
          "internalType": "uint256",
          "name": "",
          "type": "uint256"
        }
      ],
      "stateMutability": "view",
      "type": "function",
      "constant": true
    },
    {
      "inputs": [
        {
          "internalType": "string",
          "name": "_username",
          "type": "string"
        },
        {
          "internalType": "string",
          "name": "_password",
          "type": "string"
        },
        {
          "internalType": "string",
          "name": "_email",
          "type": "string"
        },
        {
          "internalType": "string",
          "name": "_number",
          "type": "string"
        },
        {
          "internalType": "string",
          "name": "_userRole",
          "type": "string"
        }
      ],
      "name": "createUser",
      "outputs": [],
      "stateMutability": "nonpayable",
      "type": "function"
    },
    {
      "inputs": [
        {
          "internalType": "string",
          "name": "_username",
          "type": "string"
        }
      ],
      "name": "getUserOrEmployeeRole",
      "outputs": [
        {
          "internalType": "string",
          "name": "",
          "type": "string"
        }
      ],
      "stateMutability": "view",
      "type": "function",
      "constant": true
    },
    {
      "inputs": [
        {
          "internalType": "string",
          "name": "_username",
          "type": "string"
        },
        {
          "internalType": "string",
          "name": "_password",
          "type": "string"
        }
      ],
      "name": "authenticateLogin",
      "outputs": [
        {
          "internalType": "bool",
          "name": "",
          "type": "bool"
        }
      ],
      "stateMutability": "view",
      "type": "function",
      "constant": true
    },
    {
      "inputs": [
        {
          "internalType": "string",
          "name": "_firstName",
          "type": "string"
        },
        {
          "internalType": "string",
          "name": "_lastName",
          "type": "string"
        },
        {
          "internalType": "string",
          "name": "_email",
          "type": "string"
        },
        {
          "internalType": "string",
          "name": "_number",
          "type": "string"
        },
        {
          "internalType": "string",
          "name": "_adr",
          "type": "string"
        },
        {
          "internalType": "string",
          "name": "_password",
          "type": "string"
        },
        {
          "internalType": "string",
          "name": "_userRole",
          "type": "string"
        }
      ],
      "name": "createEmployee",
      "outputs": [],
      "stateMutability": "nonpayable",
      "type": "function"
    },
    {
      "inputs": [
        {
          "internalType": "string",
          "name": "_firstName",
          "type": "string"
        },
        {
          "internalType": "string",
          "name": "_lastName",
          "type": "string"
        },
        {
          "internalType": "string",
          "name": "_email",
          "type": "string"
        },
        {
          "internalType": "string",
          "name": "_number",
          "type": "string"
        },
        {
          "internalType": "string",
          "name": "_adr",
          "type": "string"
        },
        {
          "internalType": "string",
          "name": "_timeSlot",
          "type": "string"
        },
        {
          "internalType": "string",
          "name": "_doctor",
          "type": "string"
        }
      ],
      "name": "bookAppointment",
      "outputs": [],
      "stateMutability": "nonpayable",
      "type": "function"
    },
    {
      "inputs": [],
      "name": "getAppointmentCount",
      "outputs": [
        {
          "internalType": "uint256",
          "name": "",
          "type": "uint256"
        }
      ],
      "stateMutability": "view",
      "type": "function",
      "constant": true
    }
  ],
  "bytecode": "0x6080604052600080556000600155600060025534801561001e57600080fd5b50611abe8061002e6000396000f3fe608060405234801561001057600080fd5b50600436106100935760003560e01c806365c06f701161006657806365c06f70146101225780639047bf581461013e578063a9d80b621461015c578063b70974a314610178578063dc19a9ae1461019457610093565b806307973ccf1461009857806322c3aa38146100b657806329e4afbb146100e65780635db5b81614610104575b600080fd5b6100a06101c4565b6040516100ad9190611171565b60405180910390f35b6100d060048036038101906100cb91906112e6565b6101ca565b6040516100dd9190611379565b60405180910390f35b6100ee6109dd565b6040516100fb9190611171565b60405180910390f35b61010c6109e7565b6040516101199190611171565b60405180910390f35b61013c60048036038101906101379190611394565b6109ed565b005b610146610b23565b6040516101539190611171565b60405180910390f35b6101766004803603810190610171919061149b565b610b29565b005b610192600480360381019061018d919061149b565b610cac565b005b6101ae60048036038101906101a99190611601565b610e2f565b6040516101bb91906116d2565b60405180910390f35b60005481565b6000806003846040516101dd9190611730565b90815260200160405180910390206040518060a001604052908160008201805461020690611776565b80601f016020809104026020016040519081016040528092919081815260200182805461023290611776565b801561027f5780601f106102545761010080835404028352916020019161027f565b820191906000526020600020905b81548152906001019060200180831161026257829003601f168201915b5050505050815260200160018201805461029890611776565b80601f01602080910402602001604051908101604052809291908181526020018280546102c490611776565b80156103115780601f106102e657610100808354040283529160200191610311565b820191906000526020600020905b8154815290600101906020018083116102f457829003601f168201915b5050505050815260200160028201805461032a90611776565b80601f016020809104026020016040519081016040528092919081815260200182805461035690611776565b80156103a35780601f10610378576101008083540402835291602001916103a3565b820191906000526020600020905b81548152906001019060200180831161038657829003601f168201915b505050505081526020016003820180546103bc90611776565b80601f01602080910402602001604051908101604052809291908181526020018280546103e890611776565b80156104355780601f1061040a57610100808354040283529160200191610435565b820191906000526020600020905b81548152906001019060200180831161041857829003601f168201915b5050505050815260200160048201805461044e90611776565b80601f016020809104026020016040519081016040528092919081815260200182805461047a90611776565b80156104c75780601f1061049c576101008083540402835291602001916104c7565b820191906000526020600020905b8154815290600101906020018083116104aa57829003601f168201915b5050505050815250509050600081600001515114156109805760006004856040516104f29190611730565b90815260200160405180910390206040518060e001604052908160008201805461051b90611776565b80601f016020809104026020016040519081016040528092919081815260200182805461054790611776565b80156105945780601f1061056957610100808354040283529160200191610594565b820191906000526020600020905b81548152906001019060200180831161057757829003601f168201915b505050505081526020016001820180546105ad90611776565b80601f01602080910402602001604051908101604052809291908181526020018280546105d990611776565b80156106265780601f106105fb57610100808354040283529160200191610626565b820191906000526020600020905b81548152906001019060200180831161060957829003601f168201915b5050505050815260200160028201805461063f90611776565b80601f016020809104026020016040519081016040528092919081815260200182805461066b90611776565b80156106b85780601f1061068d576101008083540402835291602001916106b8565b820191906000526020600020905b81548152906001019060200180831161069b57829003601f168201915b505050505081526020016003820180546106d190611776565b80601f01602080910402602001604051908101604052809291908181526020018280546106fd90611776565b801561074a5780601f1061071f5761010080835404028352916020019161074a565b820191906000526020600020905b81548152906001019060200180831161072d57829003601f168201915b5050505050815260200160048201805461076390611776565b80601f016020809104026020016040519081016040528092919081815260200182805461078f90611776565b80156107dc5780601f106107b1576101008083540402835291602001916107dc565b820191906000526020600020905b8154815290600101906020018083116107bf57829003601f168201915b505050505081526020016005820180546107f590611776565b80601f016020809104026020016040519081016040528092919081815260200182805461082190611776565b801561086e5780601f106108435761010080835404028352916020019161086e565b820191906000526020600020905b81548152906001019060200180831161085157829003601f168201915b5050505050815260200160068201805461088790611776565b80601f01602080910402602001604051908101604052809291908181526020018280546108b390611776565b80156109005780601f106108d557610100808354040283529160200191610900565b820191906000526020600020905b8154815290600101906020018083116108e357829003601f168201915b505050505081525050905060008160000151511415610924576000925050506109d7565b836040516020016109359190611730565b604051602081830303815290604052805190602001208160a001516040516020016109609190611730565b6040516020818303038152906040528051906020012014925050506109d7565b826040516020016109919190611730565b6040516020818303038152906040528051906020012081602001516040516020016109bc9190611730565b60405160208183030381529060405280519060200120149150505b92915050565b6000600254905090565b60025481565b6000808154809291906109ff906117d7565b91905055506040518060a0016040528086815260200185815260200184815260200183815260200182815250600386604051610a3b9190611730565b90815260200160405180910390206000820151816000019080519060200190610a659291906110b5565b506020820151816001019080519060200190610a829291906110b5565b506040820151816002019080519060200190610a9f9291906110b5565b506060820151816003019080519060200190610abc9291906110b5565b506080820151816004019080519060200190610ad99291906110b5565b509050507f60603265b4bbe3d4f5e5234e599d5a7362ca4849bac9971742b3c210d84954598585858585604051610b14959493929190611820565b60405180910390a15050505050565b60015481565b60026000815480929190610b3c906117d7565b91905055506040518060e0016040528088815260200187815260200186815260200185815260200184815260200183815260200182815250600586604051610b849190611730565b90815260200160405180910390206000820151816000019080519060200190610bae9291906110b5565b506020820151816001019080519060200190610bcb9291906110b5565b506040820151816002019080519060200190610be89291906110b5565b506060820151816003019080519060200190610c059291906110b5565b506080820151816004019080519060200190610c229291906110b5565b5060a0820151816005019080519060200190610c3f9291906110b5565b5060c0820151816006019080519060200190610c5c9291906110b5565b509050507fc1cd1a6666740221a3aa8c2df78e44de2275c859e8a33248feaf59e439b4aea487878787878787604051610c9b9796959493929190611896565b60405180910390a150505050505050565b60016000815480929190610cbf906117d7565b91905055506040518060e0016040528088815260200187815260200186815260200185815260200184815260200183815260200182815250600488604051610d079190611730565b90815260200160405180910390206000820151816000019080519060200190610d319291906110b5565b506020820151816001019080519060200190610d4e9291906110b5565b506040820151816002019080519060200190610d6b9291906110b5565b506060820151816003019080519060200190610d889291906110b5565b506080820151816004019080519060200190610da59291906110b5565b5060a0820151816005019080519060200190610dc29291906110b5565b5060c0820151816006019080519060200190610ddf9291906110b5565b509050507f0bfa11b2db07ed2d2ab7052146f76b12c702c2932a064e2ec80aac40de4f6c9787878787878787604051610e1e9796959493929190611896565b60405180910390a150505050505050565b6060604051602001610e409061195c565b60405160208183030381529060405280519060200120600383604051610e669190611730565b9081526020016040518091039020600401604051602001610e879190611a05565b6040516020818303038152906040528051906020012014610f5357600382604051610eb29190611730565b90815260200160405180910390206004018054610ece90611776565b80601f0160208091040260200160405190810160405280929190818152602001828054610efa90611776565b8015610f475780601f10610f1c57610100808354040283529160200191610f47565b820191906000526020600020905b815481529060010190602001808311610f2a57829003601f168201915b505050505090506110b0565b604051602001610f629061195c565b60405160208183030381529060405280519060200120600483604051610f889190611730565b9081526020016040518091039020600601604051602001610fa99190611a05565b604051602081830303815290604052805190602001201461107557600482604051610fd49190611730565b90815260200160405180910390206006018054610ff090611776565b80601f016020809104026020016040519081016040528092919081815260200182805461101c90611776565b80156110695780601f1061103e57610100808354040283529160200191611069565b820191906000526020600020905b81548152906001019060200180831161104c57829003601f168201915b505050505090506110b0565b6040517f08c379a00000000000000000000000000000000000000000000000000000000081526004016110a790611a68565b60405180910390fd5b919050565b8280546110c190611776565b90600052602060002090601f0160209004810192826110e3576000855561112a565b82601f106110fc57805160ff191683800117855561112a565b8280016001018555821561112a579182015b8281111561112957825182559160200191906001019061110e565b5b509050611137919061113b565b5090565b5b8082111561115457600081600090555060010161113c565b5090565b6000819050919050565b61116b81611158565b82525050565b60006020820190506111866000830184611162565b92915050565b6000604051905090565b600080fd5b600080fd5b600080fd5b600080fd5b6000601f19601f8301169050919050565b7f4e487b7100000000000000000000000000000000000000000000000000000000600052604160045260246000fd5b6111f3826111aa565b810181811067ffffffffffffffff82111715611212576112116111bb565b5b80604052505050565b600061122561118c565b905061123182826111ea565b919050565b600067ffffffffffffffff821115611251576112506111bb565b5b61125a826111aa565b9050602081019050919050565b82818337600083830152505050565b600061128961128484611236565b61121b565b9050828152602081018484840111156112a5576112a46111a5565b5b6112b0848285611267565b509392505050565b600082601f8301126112cd576112cc6111a0565b5b81356112dd848260208601611276565b91505092915050565b600080604083850312156112fd576112fc611196565b5b600083013567ffffffffffffffff81111561131b5761131a61119b565b5b611327858286016112b8565b925050602083013567ffffffffffffffff8111156113485761134761119b565b5b611354858286016112b8565b9150509250929050565b60008115159050919050565b6113738161135e565b82525050565b600060208201905061138e600083018461136a565b92915050565b600080600080600060a086880312156113b0576113af611196565b5b600086013567ffffffffffffffff8111156113ce576113cd61119b565b5b6113da888289016112b8565b955050602086013567ffffffffffffffff8111156113fb576113fa61119b565b5b611407888289016112b8565b945050604086013567ffffffffffffffff8111156114285761142761119b565b5b611434888289016112b8565b935050606086013567ffffffffffffffff8111156114555761145461119b565b5b611461888289016112b8565b925050608086013567ffffffffffffffff8111156114825761148161119b565b5b61148e888289016112b8565b9150509295509295909350565b600080600080600080600060e0888a0312156114ba576114b9611196565b5b600088013567ffffffffffffffff8111156114d8576114d761119b565b5b6114e48a828b016112b8565b975050602088013567ffffffffffffffff8111156115055761150461119b565b5b6115118a828b016112b8565b965050604088013567ffffffffffffffff8111156115325761153161119b565b5b61153e8a828b016112b8565b955050606088013567ffffffffffffffff81111561155f5761155e61119b565b5b61156b8a828b016112b8565b945050608088013567ffffffffffffffff81111561158c5761158b61119b565b5b6115988a828b016112b8565b93505060a088013567ffffffffffffffff8111156115b9576115b861119b565b5b6115c58a828b016112b8565b92505060c088013567ffffffffffffffff8111156115e6576115e561119b565b5b6115f28a828b016112b8565b91505092959891949750929550565b60006020828403121561161757611616611196565b5b600082013567ffffffffffffffff8111156116355761163461119b565b5b611641848285016112b8565b91505092915050565b600081519050919050565b600082825260208201905092915050565b60005b83811015611684578082015181840152602081019050611669565b83811115611693576000848401525b50505050565b60006116a48261164a565b6116ae8185611655565b93506116be818560208601611666565b6116c7816111aa565b840191505092915050565b600060208201905081810360008301526116ec8184611699565b905092915050565b600081905092915050565b600061170a8261164a565b61171481856116f4565b9350611724818560208601611666565b80840191505092915050565b600061173c82846116ff565b915081905092915050565b7f4e487b7100000000000000000000000000000000000000000000000000000000600052602260045260246000fd5b6000600282049050600182168061178e57607f821691505b602082108114156117a2576117a1611747565b5b50919050565b7f4e487b7100000000000000000000000000000000000000000000000000000000600052601160045260246000fd5b60006117e282611158565b91507fffffffffffffffffffffffffffffffffffffffffffffffffffffffffffffffff821415611815576118146117a8565b5b600182019050919050565b600060a082019050818103600083015261183a8188611699565b9050818103602083015261184e8187611699565b905081810360408301526118628186611699565b905081810360608301526118768185611699565b9050818103608083015261188a8184611699565b90509695505050505050565b600060e08201905081810360008301526118b0818a611699565b905081810360208301526118c48189611699565b905081810360408301526118d88188611699565b905081810360608301526118ec8187611699565b905081810360808301526119008186611699565b905081810360a08301526119148185611699565b905081810360c08301526119288184611699565b905098975050505050505050565b50565b60006119466000836116f4565b915061195182611936565b600082019050919050565b600061196782611939565b9150819050919050565b60008190508160005260206000209050919050565b6000815461199381611776565b61199d81866116f4565b945060018216600081146119b857600181146119c9576119fc565b60ff198316865281860193506119fc565b6119d285611971565b60005b838110156119f4578154818901526001820191506020810190506119d5565b838801955050505b50505092915050565b6000611a118284611986565b915081905092915050565b7f55736572206f7220656d706c6f796565206e6f7420666f756e64000000000000600082015250565b6000611a52601a83611655565b9150611a5d82611a1c565b602082019050919050565b60006020820190508181036000830152611a8181611a45565b905091905056fea2646970667358221220dbff52ac8e789127c2a71e133999d654b36c148e92c1370958682f13da81f4b464736f6c634300080b0033",
  "immutableReferences": {},
  "source": "// SPDX-License-Identifier: MIT\r\npragma solidity >=0.4.22 <0.9.0;\r\n\r\ncontract Auth\r\n{ \r\n\tuint public userCount = 0;\r\n\tuint public employeeCount = 0;\r\n\tuint public totalAppointmets = 0;\r\n\r\n\tmapping(string => user) users;\r\n\tmapping(string => employee) employees;\r\n\tmapping(string => appointment) appointments;\r\n\r\n\tstruct user\r\n\t{\r\n\t\tstring username;\r\n\t\tstring password;\r\n\t\tstring email;\r\n\t\tstring number;\r\n\t\tstring userRole;\r\n\t}\r\n\r\n\tstruct employee\r\n\t{\r\n\t    string firstName;\r\n\t    string lastName;\r\n\t    string email;\r\n\t    string number;\r\n        string adr;\r\n        string password;\r\n        string userRole;\r\n\t}\r\n\r\n\tstruct appointment\r\n\t{\r\n\t\tstring firstName;\r\n\t\tstring lastName;\r\n\t\tstring email;\r\n\t\tstring number;\r\n\t\tstring adr;\r\n\t\tstring timeSlot;\r\n\t\tstring doctor;\r\n\t}\r\n\r\n// events\r\n\r\n\tevent userCreated(\r\n\t\tstring username,\r\n\t\tstring email,\r\n\t\tstring number,\r\n\t\tstring password,\r\n\t\tstring userRole\r\n\t);\r\n\r\n\tevent employeeCreated(\r\n\t\t\tstring firstName,\r\n\t\t\tstring lastName,\r\n\t\t\tstring email,\r\n\t\t\tstring number,\r\n\t\t\tstring adr,\r\n\t\t\tstring password,\r\n\t\t\tstring userRole\r\n\t);\r\n\r\n\tevent appointmentCreated(\r\n\t\tstring firstName,\r\n\t\tstring lastName,\r\n\t\tstring email,\r\n\t\tstring number,\r\n\t\tstring adr,\r\n\t\tstring timeSlot,\r\n\t\tstring doctor\r\n\t);\r\n\r\n\t//user account creation and authenication logic below\r\n\r\n\tfunction createUser(string memory _username,\r\n\t\t\t\t\t\tstring memory _password,\r\n\t\t\t\t\t\tstring memory _email,\r\n\t\t\t\t\t\tstring memory _number,\r\n\t\t\t\t\t\tstring memory _userRole) public\r\n\t{\t \r\n\t\tuserCount++;\r\n\t\tusers[_username] = user(_username, _password, _email, _number, _userRole);\r\n\t\temit userCreated(_username,\r\n\t\t\t\t\t\t_password, _email, _number, _userRole);\r\n\t}\r\n\r\n//\tfunction getUserData(string memory _username) public view returns (user memory){\r\n//\t\treturn users[_username];\r\n//\t}\r\n\r\n\tfunction getUserOrEmployeeRole(string memory _username) public view returns (string memory) {\r\n\t\tif (keccak256(abi.encodePacked(users[_username].userRole)) != keccak256(abi.encodePacked(\"\"))) {\r\n\t\t\treturn users[_username].userRole;\r\n\t\t} else if (keccak256(abi.encodePacked(employees[_username].userRole)) != keccak256(abi.encodePacked(\"\"))) {\r\n\t\t\treturn employees[_username].userRole;\r\n\t\t}\r\n\t\trevert(\"User or employee not found\");\r\n\t}\r\n\r\n//\tfunction authenticateLogin(string memory _username, string memory _password) public view returns (bool){\r\n//\t\tuser memory userInstance = getUserData(_username);\r\n//\t\t\r\n//\t\treturn keccak256(abi.encodePacked(userInstance.password)) == keccak256(abi.encodePacked(_password));\r\n//\t}\r\n\r\n\tfunction authenticateLogin(string memory _username, string memory _password) public view returns (bool) {\r\n        user memory userInstance = users[_username];\r\n\r\n        if (bytes(userInstance.username).length == 0) {\r\n            // Username doesn't exist in users mapping, check employees mapping\r\n            employee memory employeeUser = employees[_username];\r\n            if (bytes(employeeUser.firstName).length == 0) {\r\n                // Username doesn't exist in either mapping\r\n                return false;\r\n            } else {\r\n                // Username exists in employees mapping, check password\r\n                return keccak256(abi.encodePacked(employeeUser.password)) == keccak256(abi.encodePacked(_password));\r\n            }\r\n        } else {\r\n            // Username exists in users mapping, check password\r\n            return keccak256(abi.encodePacked(userInstance.password)) == keccak256(abi.encodePacked(_password));\r\n        }\r\n    }\r\n\t\r\n\tfunction createEmployee(string memory _firstName, string memory _lastName, string memory _email, string memory _number, string memory _adr, string memory _password, string memory _userRole) public{\r\n        employeeCount++;\r\n        employees[_firstName] = employee(_firstName, _lastName, _email, _number, _adr, _password, _userRole);\r\n        emit employeeCreated(_firstName, _lastName, _email, _number, _adr, _password, _userRole);\r\n\t}\r\n\r\n\tfunction bookAppointment(string memory _firstName, string memory _lastName, string memory _email, string memory _number, string memory _adr, string memory _timeSlot, string memory _doctor) public{\r\n\t\ttotalAppointmets++;\r\n\t\tappointments[_email] = appointment(_firstName, _lastName, _email, _number,_adr, _timeSlot, _doctor);\r\n\t\temit appointmentCreated(_firstName,_lastName,_email,_number,_adr,_timeSlot,_doctor);\r\n\r\n\t}\r\n\r\n\tfunction getAppointmentCount() public view returns (uint){\r\n\t\treturn totalAppointmets;\r\n\t}\r\n}\r\n\r\n\r\n\r\n\r\n",
  "sourcePath": "C:\\Users\\hmane\\OneDrive\\Desktop\\HealthChainX\\healthchainx\\src\\contracts\\Auth.sol",
  "compiler": {
    "name": "solc",
    "version": "0.8.11+commit.d7f03943.Emscripten.clang"
  },
  "schemaVersion": "3.4.16",
  "updatedAt": "2024-02-20T07:42:09.108Z",
  "networkType": "ethereum",
  "devdoc": {
    "kind": "dev",
    "methods": {},
    "version": 1
  },
  "userdoc": {
    "kind": "user",
    "methods": {},
    "version": 1
  }
}