{
  "contractName": "Auth",
  "abi": [
    {
      "anonymous": false,
      "inputs": [
        {
          "indexed": false,
          "internalType": "string",
          "name": "username",
          "type": "string"
        },
        {
          "indexed": false,
          "internalType": "string",
          "name": "email",
          "type": "string"
        },
        {
          "indexed": false,
          "internalType": "string",
          "name": "number",
          "type": "string"
        },
        {
          "indexed": false,
          "internalType": "string",
          "name": "password",
          "type": "string"
        }
      ],
      "name": "userCreated",
      "type": "event"
    },
    {
      "inputs": [],
      "name": "userCount",
      "outputs": [
        {
          "internalType": "uint256",
          "name": "",
          "type": "uint256"
        }
      ],
      "stateMutability": "view",
      "type": "function",
      "constant": true
    },
    {
      "inputs": [
        {
          "internalType": "string",
          "name": "_username",
          "type": "string"
        },
        {
          "internalType": "string",
          "name": "_password",
          "type": "string"
        },
        {
          "internalType": "string",
          "name": "_email",
          "type": "string"
        },
        {
          "internalType": "string",
          "name": "_number",
          "type": "string"
        }
      ],
      "name": "createUser",
      "outputs": [],
      "stateMutability": "nonpayable",
      "type": "function"
    },
    {
      "inputs": [
        {
          "internalType": "string",
          "name": "_username",
          "type": "string"
        }
      ],
      "name": "getUserData",
      "outputs": [
        {
          "components": [
            {
              "internalType": "string",
              "name": "username",
              "type": "string"
            },
            {
              "internalType": "string",
              "name": "password",
              "type": "string"
            },
            {
              "internalType": "string",
              "name": "email",
              "type": "string"
            },
            {
              "internalType": "string",
              "name": "number",
              "type": "string"
            }
          ],
          "internalType": "struct Auth.user",
          "name": "",
          "type": "tuple"
        }
      ],
      "stateMutability": "view",
      "type": "function",
      "constant": true
    },
    {
      "inputs": [
        {
          "internalType": "string",
          "name": "_username",
          "type": "string"
        },
        {
          "internalType": "string",
          "name": "_password",
          "type": "string"
        }
      ],
      "name": "authenticateLogin",
      "outputs": [
        {
          "internalType": "bool",
          "name": "",
          "type": "bool"
        }
      ],
      "stateMutability": "view",
      "type": "function",
      "constant": true
    }
  ],
  "bytecode": "0x60806040526000805534801561001457600080fd5b50610c41806100246000396000f3fe608060405234801561001057600080fd5b506004361061004c5760003560e01c806307973ccf1461005157806322c3aa381461006f57806354ab24031461009f5780636f7fcddb146100cf575b600080fd5b6100596100eb565b60405161006691906105cf565b60405180910390f35b61008960048036038101906100849190610744565b6100f1565b60405161009691906107d7565b60405180910390f35b6100b960048036038101906100b491906107f2565b61015b565b6040516100c6919061093b565b60405180910390f35b6100e960048036038101906100e4919061095d565b6103db565b005b60005481565b6000806100fd8461015b565b9050826040516020016101109190610a70565b60405160208183030381529060405280519060200120816020015160405160200161013b9190610a70565b604051602081830303815290604052805190602001201491505092915050565b6101636104eb565b6001826040516101739190610a70565b908152602001604051809103902060405180608001604052908160008201805461019c90610ab6565b80601f01602080910402602001604051908101604052809291908181526020018280546101c890610ab6565b80156102155780601f106101ea57610100808354040283529160200191610215565b820191906000526020600020905b8154815290600101906020018083116101f857829003601f168201915b5050505050815260200160018201805461022e90610ab6565b80601f016020809104026020016040519081016040528092919081815260200182805461025a90610ab6565b80156102a75780601f1061027c576101008083540402835291602001916102a7565b820191906000526020600020905b81548152906001019060200180831161028a57829003601f168201915b505050505081526020016002820180546102c090610ab6565b80601f01602080910402602001604051908101604052809291908181526020018280546102ec90610ab6565b80156103395780601f1061030e57610100808354040283529160200191610339565b820191906000526020600020905b81548152906001019060200180831161031c57829003601f168201915b5050505050815260200160038201805461035290610ab6565b80601f016020809104026020016040519081016040528092919081815260200182805461037e90610ab6565b80156103cb5780601f106103a0576101008083540402835291602001916103cb565b820191906000526020600020905b8154815290600101906020018083116103ae57829003601f168201915b5050505050815250509050919050565b6000808154809291906103ed90610b17565b91905055506040518060800160405280858152602001848152602001838152602001828152506001856040516104239190610a70565b9081526020016040518091039020600082015181600001908051906020019061044d929190610513565b50602082015181600101908051906020019061046a929190610513565b506040820151816002019080519060200190610487929190610513565b5060608201518160030190805190602001906104a4929190610513565b509050507f2f41e0cd6bdaeefa07c19fdeb8877382f42bebe51754c35e5543d87a7a7145cb848484846040516104dd9493929190610baa565b60405180910390a150505050565b6040518060800160405280606081526020016060815260200160608152602001606081525090565b82805461051f90610ab6565b90600052602060002090601f0160209004810192826105415760008555610588565b82601f1061055a57805160ff1916838001178555610588565b82800160010185558215610588579182015b8281111561058757825182559160200191906001019061056c565b5b5090506105959190610599565b5090565b5b808211156105b257600081600090555060010161059a565b5090565b6000819050919050565b6105c9816105b6565b82525050565b60006020820190506105e460008301846105c0565b92915050565b6000604051905090565b600080fd5b600080fd5b600080fd5b600080fd5b6000601f19601f8301169050919050565b7f4e487b7100000000000000000000000000000000000000000000000000000000600052604160045260246000fd5b61065182610608565b810181811067ffffffffffffffff821117156106705761066f610619565b5b80604052505050565b60006106836105ea565b905061068f8282610648565b919050565b600067ffffffffffffffff8211156106af576106ae610619565b5b6106b882610608565b9050602081019050919050565b82818337600083830152505050565b60006106e76106e284610694565b610679565b90508281526020810184848401111561070357610702610603565b5b61070e8482856106c5565b509392505050565b600082601f83011261072b5761072a6105fe565b5b813561073b8482602086016106d4565b91505092915050565b6000806040838503121561075b5761075a6105f4565b5b600083013567ffffffffffffffff811115610779576107786105f9565b5b61078585828601610716565b925050602083013567ffffffffffffffff8111156107a6576107a56105f9565b5b6107b285828601610716565b9150509250929050565b60008115159050919050565b6107d1816107bc565b82525050565b60006020820190506107ec60008301846107c8565b92915050565b600060208284031215610808576108076105f4565b5b600082013567ffffffffffffffff811115610826576108256105f9565b5b61083284828501610716565b91505092915050565b600081519050919050565b600082825260208201905092915050565b60005b8381101561087557808201518184015260208101905061085a565b83811115610884576000848401525b50505050565b60006108958261083b565b61089f8185610846565b93506108af818560208601610857565b6108b881610608565b840191505092915050565b600060808301600083015184820360008601526108e0828261088a565b915050602083015184820360208601526108fa828261088a565b91505060408301518482036040860152610914828261088a565b9150506060830151848203606086015261092e828261088a565b9150508091505092915050565b6000602082019050818103600083015261095581846108c3565b905092915050565b60008060008060808587031215610977576109766105f4565b5b600085013567ffffffffffffffff811115610995576109946105f9565b5b6109a187828801610716565b945050602085013567ffffffffffffffff8111156109c2576109c16105f9565b5b6109ce87828801610716565b935050604085013567ffffffffffffffff8111156109ef576109ee6105f9565b5b6109fb87828801610716565b925050606085013567ffffffffffffffff811115610a1c57610a1b6105f9565b5b610a2887828801610716565b91505092959194509250565b600081905092915050565b6000610a4a8261083b565b610a548185610a34565b9350610a64818560208601610857565b80840191505092915050565b6000610a7c8284610a3f565b915081905092915050565b7f4e487b7100000000000000000000000000000000000000000000000000000000600052602260045260246000fd5b60006002820490506001821680610ace57607f821691505b60208210811415610ae257610ae1610a87565b5b50919050565b7f4e487b7100000000000000000000000000000000000000000000000000000000600052601160045260246000fd5b6000610b22826105b6565b91507fffffffffffffffffffffffffffffffffffffffffffffffffffffffffffffffff821415610b5557610b54610ae8565b5b600182019050919050565b600082825260208201905092915050565b6000610b7c8261083b565b610b868185610b60565b9350610b96818560208601610857565b610b9f81610608565b840191505092915050565b60006080820190508181036000830152610bc48187610b71565b90508181036020830152610bd88186610b71565b90508181036040830152610bec8185610b71565b90508181036060830152610c008184610b71565b90509594505050505056fea264697066735822122066f38c40209a76497fcf0c8b646ff6f0ad768eaeb6050ec9cce9a4947455482664736f6c634300080b0033",
  "immutableReferences": {},
  "source": "// SPDX-License-Identifier: MIT\r\npragma solidity >=0.4.22 <0.9.0;\r\n\r\ncontract Auth\r\n{ \r\n\tuint public userCount = 0;\r\n\r\n\tmapping(string => user) users;\r\n\r\n\tstruct user\r\n\t{\r\n\tstring username;\r\n\tstring password;\r\n\tstring email;\r\n\tstring number;\r\n\t}\r\n\r\n// events\r\n\r\nevent userCreated(\r\n\tstring username,\r\n\tstring email,\r\n\tstring number,\r\n\tstring password\r\n\t);\r\n\r\nfunction createUser(string memory _username,\r\n\t\t\t\t\tstring memory _password,\r\n\t\t\t\t\tstring memory _email,\r\n\t\t\t\t\tstring memory _number) public\r\n{\t \r\n\tuserCount++;\r\n\t users[_username] = user(_username, _password, _email, _number);\r\n\temit userCreated(_username,\r\n\t\t\t\t\t_password, _email, _number);\r\n\t}\r\n\r\n\tfunction getUserData(string memory _username) public view returns (user memory){\r\n\treturn users[_username];\r\n}\r\n\r\nfunction authenticateLogin(string memory _username, string memory _password) public view returns (bool){\r\n    user memory userInstance = getUserData(_username);\r\n\t\r\n     return keccak256(abi.encodePacked(userInstance.password)) == keccak256(abi.encodePacked(_password));\r\n}\r\n}\r\n\r\n\r\n",
  "sourcePath": "F:\\BS-CS\\FYP\\FYP_Code\\Backup-V2\\HealthChainX\\src\\contracts\\Auth.sol",
  "compiler": {
    "name": "solc",
    "version": "0.8.11+commit.d7f03943.Emscripten.clang"
  },
  "schemaVersion": "3.4.4",
  "updatedAt": "2023-12-16T18:37:01.850Z",
  "networkType": "ethereum",
  "devdoc": {
    "kind": "dev",
    "methods": {},
    "version": 1
  },
  "userdoc": {
    "kind": "user",
    "methods": {},
    "version": 1
  }
}