{
  "contractName": "Auth",
  "abi": [
    {
      "anonymous": false,
      "inputs": [
        {
          "indexed": false,
          "internalType": "string",
          "name": "username",
          "type": "string"
        },
        {
          "indexed": false,
          "internalType": "string",
          "name": "password",
          "type": "string"
        }
      ],
      "name": "userCreated",
      "type": "event"
    },
    {
      "inputs": [],
      "name": "userCount",
      "outputs": [
        {
          "internalType": "uint256",
          "name": "",
          "type": "uint256"
        }
      ],
      "stateMutability": "view",
      "type": "function",
      "constant": true
    },
    {
      "inputs": [
        {
          "internalType": "string",
          "name": "",
          "type": "string"
        }
      ],
      "name": "usersList",
      "outputs": [
        {
          "internalType": "string",
          "name": "username",
          "type": "string"
        },
        {
          "internalType": "string",
          "name": "password",
          "type": "string"
        }
      ],
      "stateMutability": "view",
      "type": "function",
      "constant": true
    },
    {
      "inputs": [
        {
          "internalType": "string",
          "name": "_username",
          "type": "string"
        },
        {
          "internalType": "string",
          "name": "_password",
          "type": "string"
        }
      ],
      "name": "createUser",
      "outputs": [],
      "stateMutability": "nonpayable",
      "type": "function"
    }
  ],
  "bytecode": "0x60806040526000805534801561001457600080fd5b506107d8806100246000396000f3fe608060405234801561001057600080fd5b50600436106100415760003560e01c806307973ccf146100465780634cbce6ac1461006457806387b162b514610095575b600080fd5b61004e6100b1565b60405161005b9190610381565b60405180910390f35b61007e600480360381019061007991906104f6565b6100b7565b60405161008c9291906105c7565b60405180910390f35b6100af60048036038101906100aa91906105fe565b610201565b005b60005481565b6001818051602081018201805184825260208301602085012081835280955050505050506000915090508060000180546100f0906106a5565b80601f016020809104026020016040519081016040528092919081815260200182805461011c906106a5565b80156101695780601f1061013e57610100808354040283529160200191610169565b820191906000526020600020905b81548152906001019060200180831161014c57829003601f168201915b50505050509080600101805461017e906106a5565b80601f01602080910402602001604051908101604052809291908181526020018280546101aa906106a5565b80156101f75780601f106101cc576101008083540402835291602001916101f7565b820191906000526020600020905b8154815290600101906020018083116101da57829003601f168201915b5050505050905082565b60008081548092919061021390610706565b919050555060405180604001604052808381526020018281525060018360405161023d919061078b565b908152602001604051809103902060008201518160000190805190602001906102679291906102c5565b5060208201518160010190805190602001906102849291906102c5565b509050507f41b4a425e30328fd5846fdc197a4b56edc82394031adb8b5b07de48a9633b4ac82826040516102b99291906105c7565b60405180910390a15050565b8280546102d1906106a5565b90600052602060002090601f0160209004810192826102f3576000855561033a565b82601f1061030c57805160ff191683800117855561033a565b8280016001018555821561033a579182015b8281111561033957825182559160200191906001019061031e565b5b509050610347919061034b565b5090565b5b8082111561036457600081600090555060010161034c565b5090565b6000819050919050565b61037b81610368565b82525050565b60006020820190506103966000830184610372565b92915050565b6000604051905090565b600080fd5b600080fd5b600080fd5b600080fd5b6000601f19601f8301169050919050565b7f4e487b7100000000000000000000000000000000000000000000000000000000600052604160045260246000fd5b610403826103ba565b810181811067ffffffffffffffff82111715610422576104216103cb565b5b80604052505050565b600061043561039c565b905061044182826103fa565b919050565b600067ffffffffffffffff821115610461576104606103cb565b5b61046a826103ba565b9050602081019050919050565b82818337600083830152505050565b600061049961049484610446565b61042b565b9050828152602081018484840111156104b5576104b46103b5565b5b6104c0848285610477565b509392505050565b600082601f8301126104dd576104dc6103b0565b5b81356104ed848260208601610486565b91505092915050565b60006020828403121561050c5761050b6103a6565b5b600082013567ffffffffffffffff81111561052a576105296103ab565b5b610536848285016104c8565b91505092915050565b600081519050919050565b600082825260208201905092915050565b60005b8381101561057957808201518184015260208101905061055e565b83811115610588576000848401525b50505050565b60006105998261053f565b6105a3818561054a565b93506105b381856020860161055b565b6105bc816103ba565b840191505092915050565b600060408201905081810360008301526105e1818561058e565b905081810360208301526105f5818461058e565b90509392505050565b60008060408385031215610615576106146103a6565b5b600083013567ffffffffffffffff811115610633576106326103ab565b5b61063f858286016104c8565b925050602083013567ffffffffffffffff8111156106605761065f6103ab565b5b61066c858286016104c8565b9150509250929050565b7f4e487b7100000000000000000000000000000000000000000000000000000000600052602260045260246000fd5b600060028204905060018216806106bd57607f821691505b602082108114156106d1576106d0610676565b5b50919050565b7f4e487b7100000000000000000000000000000000000000000000000000000000600052601160045260246000fd5b600061071182610368565b91507fffffffffffffffffffffffffffffffffffffffffffffffffffffffffffffffff821415610744576107436106d7565b5b600182019050919050565b600081905092915050565b60006107658261053f565b61076f818561074f565b935061077f81856020860161055b565b80840191505092915050565b6000610797828461075a565b91508190509291505056fea2646970667358221220b6f855121a89b7e50df9ec9608d32edf49387d90088c9843e15f49934b4de0ad64736f6c634300080b0033",
  "immutableReferences": {},
  "source": "// SPDX-License-Identifier: MIT\r\npragma solidity >=0.4.22 <0.9.0;\r\n\r\ncontract Auth\r\n{ \r\n\tuint public userCount = 0;\r\n\r\n\tmapping(string => user) public usersList;\r\n\r\n\tstruct user\r\n\t{\r\n\tstring username;\r\n\tstring password;\r\n\t}\r\n\r\n// events\r\n\r\nevent userCreated(\r\n\tstring username,\r\n\tstring password\r\n\t);\r\n\r\nfunction createUser(string memory _username,\r\n\t\t\t\t\tstring memory _password) public\r\n{\t \r\n\tuserCount++;\r\n\tusersList[_username] = user(_username,\r\n\t\t\t\t\t\t\t_password);\r\n\temit userCreated(_username,\r\n\t\t\t\t\t_password);\r\n\t}\r\n}\r\n",
  "sourcePath": "F:\\BS-CS\\FYP\\FYP_Code\\Backup-Project\\HealthChainX\\src\\contracts\\Auth.sol",
  "compiler": {
    "name": "solc",
    "version": "0.8.11+commit.d7f03943.Emscripten.clang"
  },
  "schemaVersion": "3.4.4",
  "updatedAt": "2023-12-01T13:59:52.764Z",
  "networkType": "ethereum",
  "devdoc": {
    "kind": "dev",
    "methods": {},
    "version": 1
  },
  "userdoc": {
    "kind": "user",
    "methods": {},
    "version": 1
  }
}