{
  "contractName": "Auth",
  "abi": [
    {
      "anonymous": false,
      "inputs": [
        {
          "indexed": false,
          "internalType": "string",
          "name": "firstName",
          "type": "string"
        },
        {
          "indexed": false,
          "internalType": "string",
          "name": "lastName",
          "type": "string"
        },
        {
          "indexed": false,
          "internalType": "string",
          "name": "email",
          "type": "string"
        },
        {
          "indexed": false,
          "internalType": "string",
          "name": "number",
          "type": "string"
        },
        {
          "indexed": false,
          "internalType": "string",
          "name": "address1",
          "type": "string"
        },
        {
          "indexed": false,
          "internalType": "string",
          "name": "address2",
          "type": "string"
        },
        {
          "indexed": false,
          "internalType": "string",
          "name": "userRole",
          "type": "string"
        }
      ],
      "name": "employeeCreated",
      "type": "event"
    },
    {
      "anonymous": false,
      "inputs": [
        {
          "indexed": false,
          "internalType": "string",
          "name": "username",
          "type": "string"
        },
        {
          "indexed": false,
          "internalType": "string",
          "name": "email",
          "type": "string"
        },
        {
          "indexed": false,
          "internalType": "string",
          "name": "number",
          "type": "string"
        },
        {
          "indexed": false,
          "internalType": "string",
          "name": "password",
          "type": "string"
        }
      ],
      "name": "userCreated",
      "type": "event"
    },
    {
      "inputs": [],
      "name": "employeeCount",
      "outputs": [
        {
          "internalType": "uint256",
          "name": "",
          "type": "uint256"
        }
      ],
      "stateMutability": "view",
      "type": "function",
      "constant": true
    },
    {
      "inputs": [],
      "name": "userCount",
      "outputs": [
        {
          "internalType": "uint256",
          "name": "",
          "type": "uint256"
        }
      ],
      "stateMutability": "view",
      "type": "function",
      "constant": true
    },
    {
      "inputs": [
        {
          "internalType": "string",
          "name": "_username",
          "type": "string"
        },
        {
          "internalType": "string",
          "name": "_password",
          "type": "string"
        },
        {
          "internalType": "string",
          "name": "_email",
          "type": "string"
        },
        {
          "internalType": "string",
          "name": "_number",
          "type": "string"
        }
      ],
      "name": "createUser",
      "outputs": [],
      "stateMutability": "nonpayable",
      "type": "function"
    },
    {
      "inputs": [
        {
          "internalType": "string",
          "name": "_username",
          "type": "string"
        }
      ],
      "name": "getUserData",
      "outputs": [
        {
          "components": [
            {
              "internalType": "string",
              "name": "username",
              "type": "string"
            },
            {
              "internalType": "string",
              "name": "password",
              "type": "string"
            },
            {
              "internalType": "string",
              "name": "email",
              "type": "string"
            },
            {
              "internalType": "string",
              "name": "number",
              "type": "string"
            }
          ],
          "internalType": "struct Auth.user",
          "name": "",
          "type": "tuple"
        }
      ],
      "stateMutability": "view",
      "type": "function",
      "constant": true
    },
    {
      "inputs": [
        {
          "internalType": "string",
          "name": "_username",
          "type": "string"
        },
        {
          "internalType": "string",
          "name": "_password",
          "type": "string"
        }
      ],
      "name": "authenticateLogin",
      "outputs": [
        {
          "internalType": "bool",
          "name": "",
          "type": "bool"
        }
      ],
      "stateMutability": "view",
      "type": "function",
      "constant": true
    },
    {
      "inputs": [
        {
          "internalType": "string",
          "name": "_firstName",
          "type": "string"
        },
        {
          "internalType": "string",
          "name": "_lastName",
          "type": "string"
        },
        {
          "internalType": "string",
          "name": "_email",
          "type": "string"
        },
        {
          "internalType": "string",
          "name": "_number",
          "type": "string"
        },
        {
          "internalType": "string",
          "name": "_address1",
          "type": "string"
        },
        {
          "internalType": "string",
          "name": "_address2",
          "type": "string"
        },
        {
          "internalType": "string",
          "name": "_userRole",
          "type": "string"
        }
      ],
      "name": "createEmployee",
      "outputs": [],
      "stateMutability": "nonpayable",
      "type": "function"
    }
  ],
  "bytecode": "0x608060405260008055600060015534801561001957600080fd5b50611020806100296000396000f3fe608060405234801561001057600080fd5b50600436106100625760003560e01c806307973ccf1461006757806322c3aa381461008557806354ab2403146100b55780636f7fcddb146100e55780639047bf5814610101578063b70974a31461011f575b600080fd5b61006f61013b565b60405161007c91906107a8565b60405180910390f35b61009f600480360381019061009a919061091d565b610141565b6040516100ac91906109b0565b60405180910390f35b6100cf60048036038101906100ca91906109cb565b6101ab565b6040516100dc9190610b14565b60405180910390f35b6100ff60048036038101906100fa9190610b36565b61042b565b005b61010961053b565b60405161011691906107a8565b60405180910390f35b61013960048036038101906101349190610c0d565b610541565b005b60005481565b60008061014d846101ab565b9050826040516020016101609190610daf565b60405160208183030381529060405280519060200120816020015160405160200161018b9190610daf565b604051602081830303815290604052805190602001201491505092915050565b6101b36106c4565b6002826040516101c39190610daf565b90815260200160405180910390206040518060800160405290816000820180546101ec90610df5565b80601f016020809104026020016040519081016040528092919081815260200182805461021890610df5565b80156102655780601f1061023a57610100808354040283529160200191610265565b820191906000526020600020905b81548152906001019060200180831161024857829003601f168201915b5050505050815260200160018201805461027e90610df5565b80601f01602080910402602001604051908101604052809291908181526020018280546102aa90610df5565b80156102f75780601f106102cc576101008083540402835291602001916102f7565b820191906000526020600020905b8154815290600101906020018083116102da57829003601f168201915b5050505050815260200160028201805461031090610df5565b80601f016020809104026020016040519081016040528092919081815260200182805461033c90610df5565b80156103895780601f1061035e57610100808354040283529160200191610389565b820191906000526020600020905b81548152906001019060200180831161036c57829003601f168201915b505050505081526020016003820180546103a290610df5565b80601f01602080910402602001604051908101604052809291908181526020018280546103ce90610df5565b801561041b5780601f106103f05761010080835404028352916020019161041b565b820191906000526020600020905b8154815290600101906020018083116103fe57829003601f168201915b5050505050815250509050919050565b60008081548092919061043d90610e56565b91905055506040518060800160405280858152602001848152602001838152602001828152506002856040516104739190610daf565b9081526020016040518091039020600082015181600001908051906020019061049d9291906106ec565b5060208201518160010190805190602001906104ba9291906106ec565b5060408201518160020190805190602001906104d79291906106ec565b5060608201518160030190805190602001906104f49291906106ec565b509050507f2f41e0cd6bdaeefa07c19fdeb8877382f42bebe51754c35e5543d87a7a7145cb8484848460405161052d9493929190610ee9565b60405180910390a150505050565b60015481565b6001600081548092919061055490610e56565b91905055506040518060e001604052808881526020018781526020018681526020018581526020018481526020018381526020018281525060038860405161059c9190610daf565b908152602001604051809103902060008201518160000190805190602001906105c69291906106ec565b5060208201518160010190805190602001906105e39291906106ec565b5060408201518160020190805190602001906106009291906106ec565b50606082015181600301908051906020019061061d9291906106ec565b50608082015181600401908051906020019061063a9291906106ec565b5060a08201518160050190805190602001906106579291906106ec565b5060c08201518160060190805190602001906106749291906106ec565b509050507f0bfa11b2db07ed2d2ab7052146f76b12c702c2932a064e2ec80aac40de4f6c97878787878787876040516106b39796959493929190610f4a565b60405180910390a150505050505050565b6040518060800160405280606081526020016060815260200160608152602001606081525090565b8280546106f890610df5565b90600052602060002090601f01602090048101928261071a5760008555610761565b82601f1061073357805160ff1916838001178555610761565b82800160010185558215610761579182015b82811115610760578251825591602001919060010190610745565b5b50905061076e9190610772565b5090565b5b8082111561078b576000816000905550600101610773565b5090565b6000819050919050565b6107a28161078f565b82525050565b60006020820190506107bd6000830184610799565b92915050565b6000604051905090565b600080fd5b600080fd5b600080fd5b600080fd5b6000601f19601f8301169050919050565b7f4e487b7100000000000000000000000000000000000000000000000000000000600052604160045260246000fd5b61082a826107e1565b810181811067ffffffffffffffff82111715610849576108486107f2565b5b80604052505050565b600061085c6107c3565b90506108688282610821565b919050565b600067ffffffffffffffff821115610888576108876107f2565b5b610891826107e1565b9050602081019050919050565b82818337600083830152505050565b60006108c06108bb8461086d565b610852565b9050828152602081018484840111156108dc576108db6107dc565b5b6108e784828561089e565b509392505050565b600082601f830112610904576109036107d7565b5b81356109148482602086016108ad565b91505092915050565b60008060408385031215610934576109336107cd565b5b600083013567ffffffffffffffff811115610952576109516107d2565b5b61095e858286016108ef565b925050602083013567ffffffffffffffff81111561097f5761097e6107d2565b5b61098b858286016108ef565b9150509250929050565b60008115159050919050565b6109aa81610995565b82525050565b60006020820190506109c560008301846109a1565b92915050565b6000602082840312156109e1576109e06107cd565b5b600082013567ffffffffffffffff8111156109ff576109fe6107d2565b5b610a0b848285016108ef565b91505092915050565b600081519050919050565b600082825260208201905092915050565b60005b83811015610a4e578082015181840152602081019050610a33565b83811115610a5d576000848401525b50505050565b6000610a6e82610a14565b610a788185610a1f565b9350610a88818560208601610a30565b610a91816107e1565b840191505092915050565b60006080830160008301518482036000860152610ab98282610a63565b91505060208301518482036020860152610ad38282610a63565b91505060408301518482036040860152610aed8282610a63565b91505060608301518482036060860152610b078282610a63565b9150508091505092915050565b60006020820190508181036000830152610b2e8184610a9c565b905092915050565b60008060008060808587031215610b5057610b4f6107cd565b5b600085013567ffffffffffffffff811115610b6e57610b6d6107d2565b5b610b7a878288016108ef565b945050602085013567ffffffffffffffff811115610b9b57610b9a6107d2565b5b610ba7878288016108ef565b935050604085013567ffffffffffffffff811115610bc857610bc76107d2565b5b610bd4878288016108ef565b925050606085013567ffffffffffffffff811115610bf557610bf46107d2565b5b610c01878288016108ef565b91505092959194509250565b600080600080600080600060e0888a031215610c2c57610c2b6107cd565b5b600088013567ffffffffffffffff811115610c4a57610c496107d2565b5b610c568a828b016108ef565b975050602088013567ffffffffffffffff811115610c7757610c766107d2565b5b610c838a828b016108ef565b965050604088013567ffffffffffffffff811115610ca457610ca36107d2565b5b610cb08a828b016108ef565b955050606088013567ffffffffffffffff811115610cd157610cd06107d2565b5b610cdd8a828b016108ef565b945050608088013567ffffffffffffffff811115610cfe57610cfd6107d2565b5b610d0a8a828b016108ef565b93505060a088013567ffffffffffffffff811115610d2b57610d2a6107d2565b5b610d378a828b016108ef565b92505060c088013567ffffffffffffffff811115610d5857610d576107d2565b5b610d648a828b016108ef565b91505092959891949750929550565b600081905092915050565b6000610d8982610a14565b610d938185610d73565b9350610da3818560208601610a30565b80840191505092915050565b6000610dbb8284610d7e565b915081905092915050565b7f4e487b7100000000000000000000000000000000000000000000000000000000600052602260045260246000fd5b60006002820490506001821680610e0d57607f821691505b60208210811415610e2157610e20610dc6565b5b50919050565b7f4e487b7100000000000000000000000000000000000000000000000000000000600052601160045260246000fd5b6000610e618261078f565b91507fffffffffffffffffffffffffffffffffffffffffffffffffffffffffffffffff821415610e9457610e93610e27565b5b600182019050919050565b600082825260208201905092915050565b6000610ebb82610a14565b610ec58185610e9f565b9350610ed5818560208601610a30565b610ede816107e1565b840191505092915050565b60006080820190508181036000830152610f038187610eb0565b90508181036020830152610f178186610eb0565b90508181036040830152610f2b8185610eb0565b90508181036060830152610f3f8184610eb0565b905095945050505050565b600060e0820190508181036000830152610f64818a610eb0565b90508181036020830152610f788189610eb0565b90508181036040830152610f8c8188610eb0565b90508181036060830152610fa08187610eb0565b90508181036080830152610fb48186610eb0565b905081810360a0830152610fc88185610eb0565b905081810360c0830152610fdc8184610eb0565b90509897505050505050505056fea264697066735822122079368004e6d70227cc4364c7a2c93bf45c525f4f122848f17b94afa018a0ac4764736f6c634300080b0033",
  "immutableReferences": {},
  "source": "// SPDX-License-Identifier: MIT\r\npragma solidity >=0.4.22 <0.9.0;\r\n\r\ncontract Auth\r\n{ \r\n\tuint public userCount = 0;\r\n\t uint public employeeCount = 0;\r\n\r\n\tmapping(string => user) users;\r\n\tmapping(string => employee) employees;\r\n\r\n\tstruct user\r\n\t{\r\n\tstring username;\r\n\tstring password;\r\n\tstring email;\r\n\tstring number;\r\n\t}\r\n\r\n\tstruct employee\r\n\t{\r\n\t    string firstName;\r\n\t    string lastName;\r\n\t    string email;\r\n\t    string number;\r\n        string address1;\r\n        string address2;\r\n        string userRole;\r\n\t}\r\n\r\n// events\r\n\r\nevent userCreated(\r\n\tstring username,\r\n\tstring email,\r\n\tstring number,\r\n\tstring password\r\n\t);\r\n\r\nevent employeeCreated(\r\n        string firstName,\r\n\t    string lastName,\r\n\t    string email,\r\n\t    string number,\r\n        string address1,\r\n        string address2,\r\n        string userRole\r\n\t);\r\n\r\n//user account creation and authenication logic below\r\n\r\nfunction createUser(string memory _username,\r\n\t\t\t\t\tstring memory _password,\r\n\t\t\t\t\tstring memory _email,\r\n\t\t\t\t\tstring memory _number) public\r\n{\t \r\n\tuserCount++;\r\n\t users[_username] = user(_username, _password, _email, _number);\r\n\temit userCreated(_username,\r\n\t\t\t\t\t_password, _email, _number);\r\n\t}\r\n\r\n\tfunction getUserData(string memory _username) public view returns (user memory){\r\n\treturn users[_username];\r\n}\r\n\r\nfunction authenticateLogin(string memory _username, string memory _password) public view returns (bool){\r\n    user memory userInstance = getUserData(_username);\r\n\t\r\n     return keccak256(abi.encodePacked(userInstance.password)) == keccak256(abi.encodePacked(_password));\r\n}\r\n\r\n//admin creates users here\r\n\t\r\n\tfunction createEmployee(string memory _firstName, string memory _lastName, string memory _email, string memory _number, string memory _address1, string memory _address2, string memory _userRole) public{\r\n        employeeCount++;\r\n        employees[_firstName] = employee(_firstName, _lastName, _email, _number, _address1, _address2, _userRole);\r\n        emit employeeCreated(_firstName, _lastName, _email, _number, _address1, _address2, _userRole);\r\n\t}\r\n\r\n}\r\n\r\n\r\n",
  "sourcePath": "F:\\BS-CS\\FYP\\FYP_Code\\Pre-Internal-Backup\\HealthChainX\\src\\contracts\\Auth.sol",
  "compiler": {
    "name": "solc",
    "version": "0.8.11+commit.d7f03943.Emscripten.clang"
  },
  "schemaVersion": "3.4.4",
  "updatedAt": "2023-12-27T03:43:28.183Z",
  "networkType": "ethereum",
  "devdoc": {
    "kind": "dev",
    "methods": {},
    "version": 1
  },
  "userdoc": {
    "kind": "user",
    "methods": {},
    "version": 1
  }
}