{
  "contractName": "Auth",
  "abi": [
    {
      "anonymous": false,
      "inputs": [
        {
          "indexed": false,
          "internalType": "string",
          "name": "firstName",
          "type": "string"
        },
        {
          "indexed": false,
          "internalType": "string",
          "name": "lastName",
          "type": "string"
        },
        {
          "indexed": false,
          "internalType": "string",
          "name": "email",
          "type": "string"
        },
        {
          "indexed": false,
          "internalType": "string",
          "name": "number",
          "type": "string"
        },
        {
          "indexed": false,
          "internalType": "string",
          "name": "adr",
          "type": "string"
        },
        {
          "indexed": false,
          "internalType": "string",
          "name": "password",
          "type": "string"
        },
        {
          "indexed": false,
          "internalType": "string",
          "name": "userRole",
          "type": "string"
        }
      ],
      "name": "employeeCreated",
      "type": "event"
    },
    {
      "anonymous": false,
      "inputs": [
        {
          "indexed": false,
          "internalType": "string",
          "name": "username",
          "type": "string"
        },
        {
          "indexed": false,
          "internalType": "string",
          "name": "email",
          "type": "string"
        },
        {
          "indexed": false,
          "internalType": "string",
          "name": "number",
          "type": "string"
        },
        {
          "indexed": false,
          "internalType": "string",
          "name": "password",
          "type": "string"
        },
        {
          "indexed": false,
          "internalType": "string",
          "name": "userRole",
          "type": "string"
        }
      ],
      "name": "userCreated",
      "type": "event"
    },
    {
      "inputs": [],
      "name": "employeeCount",
      "outputs": [
        {
          "internalType": "uint256",
          "name": "",
          "type": "uint256"
        }
      ],
      "stateMutability": "view",
      "type": "function",
      "constant": true
    },
    {
      "inputs": [],
      "name": "userCount",
      "outputs": [
        {
          "internalType": "uint256",
          "name": "",
          "type": "uint256"
        }
      ],
      "stateMutability": "view",
      "type": "function",
      "constant": true
    },
    {
      "inputs": [
        {
          "internalType": "string",
          "name": "_username",
          "type": "string"
        },
        {
          "internalType": "string",
          "name": "_password",
          "type": "string"
        },
        {
          "internalType": "string",
          "name": "_email",
          "type": "string"
        },
        {
          "internalType": "string",
          "name": "_number",
          "type": "string"
        },
        {
          "internalType": "string",
          "name": "_userRole",
          "type": "string"
        }
      ],
      "name": "createUser",
      "outputs": [],
      "stateMutability": "nonpayable",
      "type": "function"
    },
    {
      "inputs": [
        {
          "internalType": "string",
          "name": "_username",
          "type": "string"
        }
      ],
      "name": "getUserData",
      "outputs": [
        {
          "components": [
            {
              "internalType": "string",
              "name": "username",
              "type": "string"
            },
            {
              "internalType": "string",
              "name": "password",
              "type": "string"
            },
            {
              "internalType": "string",
              "name": "email",
              "type": "string"
            },
            {
              "internalType": "string",
              "name": "number",
              "type": "string"
            },
            {
              "internalType": "string",
              "name": "userRole",
              "type": "string"
            }
          ],
          "internalType": "struct Auth.user",
          "name": "",
          "type": "tuple"
        }
      ],
      "stateMutability": "view",
      "type": "function",
      "constant": true
    },
    {
      "inputs": [
        {
          "internalType": "string",
          "name": "_username",
          "type": "string"
        },
        {
          "internalType": "string",
          "name": "_password",
          "type": "string"
        }
      ],
      "name": "authenticateLogin",
      "outputs": [
        {
          "internalType": "bool",
          "name": "",
          "type": "bool"
        }
      ],
      "stateMutability": "view",
      "type": "function",
      "constant": true
    },
    {
      "inputs": [
        {
          "internalType": "string",
          "name": "_firstName",
          "type": "string"
        },
        {
          "internalType": "string",
          "name": "_lastName",
          "type": "string"
        },
        {
          "internalType": "string",
          "name": "_email",
          "type": "string"
        },
        {
          "internalType": "string",
          "name": "_number",
          "type": "string"
        },
        {
          "internalType": "string",
          "name": "_adr",
          "type": "string"
        },
        {
          "internalType": "string",
          "name": "_password",
          "type": "string"
        },
        {
          "internalType": "string",
          "name": "_userRole",
          "type": "string"
        }
      ],
      "name": "createEmployee",
      "outputs": [],
      "stateMutability": "nonpayable",
      "type": "function"
    }
  ],
  "bytecode": "0x608060405260008055600060015534801561001957600080fd5b5061113e806100296000396000f3fe608060405234801561001057600080fd5b50600436106100625760003560e01c806307973ccf1461006757806322c3aa381461008557806354ab2403146100b557806365c06f70146100e55780639047bf5814610101578063b70974a31461011f575b600080fd5b61006f61013b565b60405161007c9190610867565b60405180910390f35b61009f600480360381019061009a91906109dc565b610141565b6040516100ac9190610a6f565b60405180910390f35b6100cf60048036038101906100ca9190610a8a565b6101ab565b6040516100dc9190610bed565b60405180910390f35b6100ff60048036038101906100fa9190610c0f565b6104bd565b005b6101096105f3565b6040516101169190610867565b60405180910390f35b61013960048036038101906101349190610d16565b6105f9565b005b60005481565b60008061014d846101ab565b9050826040516020016101609190610eb8565b60405160208183030381529060405280519060200120816020015160405160200161018b9190610eb8565b604051602081830303815290604052805190602001201491505092915050565b6101b361077c565b6002826040516101c39190610eb8565b90815260200160405180910390206040518060a00160405290816000820180546101ec90610efe565b80601f016020809104026020016040519081016040528092919081815260200182805461021890610efe565b80156102655780601f1061023a57610100808354040283529160200191610265565b820191906000526020600020905b81548152906001019060200180831161024857829003601f168201915b5050505050815260200160018201805461027e90610efe565b80601f01602080910402602001604051908101604052809291908181526020018280546102aa90610efe565b80156102f75780601f106102cc576101008083540402835291602001916102f7565b820191906000526020600020905b8154815290600101906020018083116102da57829003601f168201915b5050505050815260200160028201805461031090610efe565b80601f016020809104026020016040519081016040528092919081815260200182805461033c90610efe565b80156103895780601f1061035e57610100808354040283529160200191610389565b820191906000526020600020905b81548152906001019060200180831161036c57829003601f168201915b505050505081526020016003820180546103a290610efe565b80601f01602080910402602001604051908101604052809291908181526020018280546103ce90610efe565b801561041b5780601f106103f05761010080835404028352916020019161041b565b820191906000526020600020905b8154815290600101906020018083116103fe57829003601f168201915b5050505050815260200160048201805461043490610efe565b80601f016020809104026020016040519081016040528092919081815260200182805461046090610efe565b80156104ad5780601f10610482576101008083540402835291602001916104ad565b820191906000526020600020905b81548152906001019060200180831161049057829003601f168201915b5050505050815250509050919050565b6000808154809291906104cf90610f5f565b91905055506040518060a001604052808681526020018581526020018481526020018381526020018281525060028660405161050b9190610eb8565b908152602001604051809103902060008201518160000190805190602001906105359291906107ab565b5060208201518160010190805190602001906105529291906107ab565b50604082015181600201908051906020019061056f9291906107ab565b50606082015181600301908051906020019061058c9291906107ab565b5060808201518160040190805190602001906105a99291906107ab565b509050507f60603265b4bbe3d4f5e5234e599d5a7362ca4849bac9971742b3c210d849545985858585856040516105e4959493929190610ff2565b60405180910390a15050505050565b60015481565b6001600081548092919061060c90610f5f565b91905055506040518060e00160405280888152602001878152602001868152602001858152602001848152602001838152602001828152506003886040516106549190610eb8565b9081526020016040518091039020600082015181600001908051906020019061067e9291906107ab565b50602082015181600101908051906020019061069b9291906107ab565b5060408201518160020190805190602001906106b89291906107ab565b5060608201518160030190805190602001906106d59291906107ab565b5060808201518160040190805190602001906106f29291906107ab565b5060a082015181600501908051906020019061070f9291906107ab565b5060c082015181600601908051906020019061072c9291906107ab565b509050507f0bfa11b2db07ed2d2ab7052146f76b12c702c2932a064e2ec80aac40de4f6c978787878787878760405161076b9796959493929190611068565b60405180910390a150505050505050565b6040518060a0016040528060608152602001606081526020016060815260200160608152602001606081525090565b8280546107b790610efe565b90600052602060002090601f0160209004810192826107d95760008555610820565b82601f106107f257805160ff1916838001178555610820565b82800160010185558215610820579182015b8281111561081f578251825591602001919060010190610804565b5b50905061082d9190610831565b5090565b5b8082111561084a576000816000905550600101610832565b5090565b6000819050919050565b6108618161084e565b82525050565b600060208201905061087c6000830184610858565b92915050565b6000604051905090565b600080fd5b600080fd5b600080fd5b600080fd5b6000601f19601f8301169050919050565b7f4e487b7100000000000000000000000000000000000000000000000000000000600052604160045260246000fd5b6108e9826108a0565b810181811067ffffffffffffffff82111715610908576109076108b1565b5b80604052505050565b600061091b610882565b905061092782826108e0565b919050565b600067ffffffffffffffff821115610947576109466108b1565b5b610950826108a0565b9050602081019050919050565b82818337600083830152505050565b600061097f61097a8461092c565b610911565b90508281526020810184848401111561099b5761099a61089b565b5b6109a684828561095d565b509392505050565b600082601f8301126109c3576109c2610896565b5b81356109d384826020860161096c565b91505092915050565b600080604083850312156109f3576109f261088c565b5b600083013567ffffffffffffffff811115610a1157610a10610891565b5b610a1d858286016109ae565b925050602083013567ffffffffffffffff811115610a3e57610a3d610891565b5b610a4a858286016109ae565b9150509250929050565b60008115159050919050565b610a6981610a54565b82525050565b6000602082019050610a846000830184610a60565b92915050565b600060208284031215610aa057610a9f61088c565b5b600082013567ffffffffffffffff811115610abe57610abd610891565b5b610aca848285016109ae565b91505092915050565b600081519050919050565b600082825260208201905092915050565b60005b83811015610b0d578082015181840152602081019050610af2565b83811115610b1c576000848401525b50505050565b6000610b2d82610ad3565b610b378185610ade565b9350610b47818560208601610aef565b610b50816108a0565b840191505092915050565b600060a0830160008301518482036000860152610b788282610b22565b91505060208301518482036020860152610b928282610b22565b91505060408301518482036040860152610bac8282610b22565b91505060608301518482036060860152610bc68282610b22565b91505060808301518482036080860152610be08282610b22565b9150508091505092915050565b60006020820190508181036000830152610c078184610b5b565b905092915050565b600080600080600060a08688031215610c2b57610c2a61088c565b5b600086013567ffffffffffffffff811115610c4957610c48610891565b5b610c55888289016109ae565b955050602086013567ffffffffffffffff811115610c7657610c75610891565b5b610c82888289016109ae565b945050604086013567ffffffffffffffff811115610ca357610ca2610891565b5b610caf888289016109ae565b935050606086013567ffffffffffffffff811115610cd057610ccf610891565b5b610cdc888289016109ae565b925050608086013567ffffffffffffffff811115610cfd57610cfc610891565b5b610d09888289016109ae565b9150509295509295909350565b600080600080600080600060e0888a031215610d3557610d3461088c565b5b600088013567ffffffffffffffff811115610d5357610d52610891565b5b610d5f8a828b016109ae565b975050602088013567ffffffffffffffff811115610d8057610d7f610891565b5b610d8c8a828b016109ae565b965050604088013567ffffffffffffffff811115610dad57610dac610891565b5b610db98a828b016109ae565b955050606088013567ffffffffffffffff811115610dda57610dd9610891565b5b610de68a828b016109ae565b945050608088013567ffffffffffffffff811115610e0757610e06610891565b5b610e138a828b016109ae565b93505060a088013567ffffffffffffffff811115610e3457610e33610891565b5b610e408a828b016109ae565b92505060c088013567ffffffffffffffff811115610e6157610e60610891565b5b610e6d8a828b016109ae565b91505092959891949750929550565b600081905092915050565b6000610e9282610ad3565b610e9c8185610e7c565b9350610eac818560208601610aef565b80840191505092915050565b6000610ec48284610e87565b915081905092915050565b7f4e487b7100000000000000000000000000000000000000000000000000000000600052602260045260246000fd5b60006002820490506001821680610f1657607f821691505b60208210811415610f2a57610f29610ecf565b5b50919050565b7f4e487b7100000000000000000000000000000000000000000000000000000000600052601160045260246000fd5b6000610f6a8261084e565b91507fffffffffffffffffffffffffffffffffffffffffffffffffffffffffffffffff821415610f9d57610f9c610f30565b5b600182019050919050565b600082825260208201905092915050565b6000610fc482610ad3565b610fce8185610fa8565b9350610fde818560208601610aef565b610fe7816108a0565b840191505092915050565b600060a082019050818103600083015261100c8188610fb9565b905081810360208301526110208187610fb9565b905081810360408301526110348186610fb9565b905081810360608301526110488185610fb9565b9050818103608083015261105c8184610fb9565b90509695505050505050565b600060e0820190508181036000830152611082818a610fb9565b905081810360208301526110968189610fb9565b905081810360408301526110aa8188610fb9565b905081810360608301526110be8187610fb9565b905081810360808301526110d28186610fb9565b905081810360a08301526110e68185610fb9565b905081810360c08301526110fa8184610fb9565b90509897505050505050505056fea2646970667358221220d3762d272dcd305bf27af06a94a8867712fc15df66e6897511a68d148fc40bd764736f6c634300080b0033",
  "immutableReferences": {},
  "source": "// SPDX-License-Identifier: MIT\r\npragma solidity >=0.4.22 <0.9.0;\r\n\r\ncontract Auth\r\n{ \r\n\tuint public userCount = 0;\r\n\tuint public employeeCount = 0;\r\n\r\n\tmapping(string => user) users;\r\n\tmapping(string => employee) employees;\r\n\r\n\tstruct user\r\n\t{\r\n\t\tstring username;\r\n\t\tstring password;\r\n\t\tstring email;\r\n\t\tstring number;\r\n\t\tstring userRole;\r\n\t}\r\n\r\n\tstruct employee\r\n\t{\r\n\t    string firstName;\r\n\t    string lastName;\r\n\t    string email;\r\n\t    string number;\r\n        string adr;\r\n        string password;\r\n        string userRole;\r\n\t}\r\n\r\n// events\r\n\r\n\tevent userCreated(\r\n\t\tstring username,\r\n\t\tstring email,\r\n\t\tstring number,\r\n\t\tstring password,\r\n\t\tstring userRole\r\n\t);\r\n\r\n\tevent employeeCreated(\r\n\t\t\tstring firstName,\r\n\t\t\tstring lastName,\r\n\t\t\tstring email,\r\n\t\t\tstring number,\r\n\t\t\tstring adr,\r\n\t\t\tstring password,\r\n\t\t\tstring userRole\r\n\t);\r\n\r\n\t//user account creation and authenication logic below\r\n\r\n\tfunction createUser(string memory _username,\r\n\t\t\t\t\t\tstring memory _password,\r\n\t\t\t\t\t\tstring memory _email,\r\n\t\t\t\t\t\tstring memory _number,\r\n\t\t\t\t\t\tstring memory _userRole) public\r\n\t{\t \r\n\t\tuserCount++;\r\n\t\tusers[_username] = user(_username, _password, _email, _number, _userRole);\r\n\t\temit userCreated(_username,\r\n\t\t\t\t\t\t_password, _email, _number, _userRole);\r\n\t\t}\r\n\r\n\t\tfunction getUserData(string memory _username) public view returns (user memory){\r\n\t\treturn users[_username];\r\n\t}\r\n\r\n\tfunction authenticateLogin(string memory _username, string memory _password) public view returns (bool){\r\n\t\tuser memory userInstance = getUserData(_username);\r\n\t\t\r\n\t\treturn keccak256(abi.encodePacked(userInstance.password)) == keccak256(abi.encodePacked(_password));\r\n\t}\r\n\r\n\t//admin creates users here\r\n\t\r\n\tfunction createEmployee(string memory _firstName, string memory _lastName, string memory _email, string memory _number, string memory _adr, string memory _password, string memory _userRole) public{\r\n        employeeCount++;\r\n        employees[_firstName] = employee(_firstName, _lastName, _email, _number, _adr, _password, _userRole);\r\n        emit employeeCreated(_firstName, _lastName, _email, _number, _adr, _password, _userRole);\r\n\t}\r\n}\r\n\r\n\r\n",
  "sourcePath": "C:\\Users\\hmane\\OneDrive\\Desktop\\HealthChainX\\healthchainx\\src\\contracts\\Auth.sol",
  "compiler": {
    "name": "solc",
    "version": "0.8.11+commit.d7f03943.Emscripten.clang"
  },
  "schemaVersion": "3.4.16",
  "updatedAt": "2024-02-19T13:08:28.385Z",
  "networkType": "ethereum",
  "devdoc": {
    "kind": "dev",
    "methods": {},
    "version": 1
  },
  "userdoc": {
    "kind": "user",
    "methods": {},
    "version": 1
  }
}